{
  "contractName": "RentalIncomeDistribution",
  "abi": [
    {
      "inputs": [],
      "stateMutability": "nonpayable",
      "type": "constructor"
    },
    {
      "inputs": [],
      "name": "owner",
      "outputs": [
        {
          "internalType": "address",
          "name": "",
          "type": "address"
        }
      ],
      "stateMutability": "view",
      "type": "function",
      "constant": true
    },
    {
      "stateMutability": "payable",
      "type": "receive",
      "payable": true
    },
    {
      "inputs": [
        {
          "internalType": "address[]",
          "name": "investors",
          "type": "address[]"
        },
        {
          "internalType": "uint256[]",
          "name": "amounts",
          "type": "uint256[]"
        }
      ],
      "name": "distributeIncome",
      "outputs": [],
      "stateMutability": "nonpayable",
      "type": "function"
    }
  ],
  "bytecode": "0x608060405234801561001057600080fd5b50336000806101000a81548173ffffffffffffffffffffffffffffffffffffffff021916908373ffffffffffffffffffffffffffffffffffffffff16021790555061069d806100606000396000f3fe60806040526004361061002d5760003560e01c80638da5cb5b14610039578063d0e63e8e1461006457610034565b3661003457005b600080fd5b34801561004557600080fd5b5061004e61008d565b60405161005b919061021f565b60405180910390f35b34801561007057600080fd5b5061008b600480360381019061008691906104cc565b6100b1565b005b60008054906101000a900473ffffffffffffffffffffffffffffffffffffffff1681565b60008054906101000a900473ffffffffffffffffffffffffffffffffffffffff1673ffffffffffffffffffffffffffffffffffffffff163373ffffffffffffffffffffffffffffffffffffffff161461013f576040517f08c379a0000000000000000000000000000000000000000000000000000000008152600401610136906105a1565b60405180910390fd5b60005b82518110156101d95782818151811061015e5761015d6105c1565b5b602002602001015173ffffffffffffffffffffffffffffffffffffffff166108fc838381518110610192576101916105c1565b5b60200260200101519081150290604051600060405180830381858888f193505050501580156101c5573d6000803e3d6000fd5b5080806101d19061061f565b915050610142565b505050565b600073ffffffffffffffffffffffffffffffffffffffff82169050919050565b6000610209826101de565b9050919050565b610219816101fe565b82525050565b60006020820190506102346000830184610210565b92915050565b6000604051905090565b600080fd5b600080fd5b600080fd5b6000601f19601f8301169050919050565b7f4e487b7100000000000000000000000000000000000000000000000000000000600052604160045260246000fd5b61029c82610253565b810181811067ffffffffffffffff821117156102bb576102ba610264565b5b80604052505050565b60006102ce61023a565b90506102da8282610293565b919050565b600067ffffffffffffffff8211156102fa576102f9610264565b5b602082029050602081019050919050565b600080fd5b610319816101fe565b811461032457600080fd5b50565b60008135905061033681610310565b92915050565b600061034f61034a846102df565b6102c4565b905080838252602082019050602084028301858111156103725761037161030b565b5b835b8181101561039b57806103878882610327565b845260208401935050602081019050610374565b5050509392505050565b600082601f8301126103ba576103b961024e565b5b81356103ca84826020860161033c565b91505092915050565b600067ffffffffffffffff8211156103ee576103ed610264565b5b602082029050602081019050919050565b6000819050919050565b610412816103ff565b811461041d57600080fd5b50565b60008135905061042f81610409565b92915050565b6000610448610443846103d3565b6102c4565b9050808382526020820190506020840283018581111561046b5761046a61030b565b5b835b8181101561049457806104808882610420565b84526020840193505060208101905061046d565b5050509392505050565b600082601f8301126104b3576104b261024e565b5b81356104c3848260208601610435565b91505092915050565b600080604083850312156104e3576104e2610244565b5b600083013567ffffffffffffffff81111561050157610500610249565b5b61050d858286016103a5565b925050602083013567ffffffffffffffff81111561052e5761052d610249565b5b61053a8582860161049e565b9150509250929050565b600082825260208201905092915050565b7f4f6e6c79206f776e65722063616e206469737472696275746520696e636f6d65600082015250565b600061058b602083610544565b915061059682610555565b602082019050919050565b600060208201905081810360008301526105ba8161057e565b9050919050565b7f4e487b7100000000000000000000000000000000000000000000000000000000600052603260045260246000fd5b7f4e487b7100000000000000000000000000000000000000000000000000000000600052601160045260246000fd5b600061062a826103ff565b91507fffffffffffffffffffffffffffffffffffffffffffffffffffffffffffffffff820361065c5761065b6105f0565b5b60018201905091905056fea2646970667358221220984d6e341738e12b03f172843ca18d8721b66f89945a88632881c60a0597ac3064736f6c63430008150033",
  "immutableReferences": {},
  "source": "// SPDX-License-Identifier: MIT\r\npragma solidity ^0.8.0;\r\n\r\ncontract RentalIncomeDistribution {\r\n    address public owner;\r\n\r\n    constructor() {\r\n        owner = msg.sender;\r\n    }\r\n\r\n    function distributeIncome(address[] memory investors, uint256[] memory amounts) public {\r\n        require(msg.sender == owner, \"Only owner can distribute income\");\r\n        for (uint256 i = 0; i < investors.length; i++) {\r\n            payable(investors[i]).transfer(amounts[i]);\r\n        }\r\n    }\r\n\r\n    receive() external payable {}\r\n}\r\n",
  "sourcePath": "E:\\Project\\vaastu\\contracts\\RentalIncomeDistribution.sol",
  "compiler": {
    "name": "solc",
    "version": "0.8.21+commit.d9974bed.Emscripten.clang"
  },
  "schemaVersion": "3.4.16",
  "updatedAt": "2024-05-28T05:01:06.574Z",
  "networkType": "ethereum",
  "devdoc": {
    "kind": "dev",
    "methods": {},
    "version": 1
  },
  "userdoc": {
    "kind": "user",
    "methods": {},
    "version": 1
  }
}