{
  "contractName": "UserRegistration",
  "abi": [
    {
      "anonymous": false,
      "inputs": [
        {
          "indexed": false,
          "internalType": "string",
          "name": "name",
          "type": "string"
        },
        {
          "indexed": false,
          "internalType": "string",
          "name": "aadhar",
          "type": "string"
        },
        {
          "indexed": false,
          "internalType": "string",
          "name": "pan",
          "type": "string"
        },
        {
          "indexed": false,
          "internalType": "address",
          "name": "walletAddress",
          "type": "address"
        },
        {
          "indexed": false,
          "internalType": "address",
          "name": "sender",
          "type": "address"
        }
      ],
      "name": "RegistrationAttempt",
      "type": "event"
    },
    {
      "anonymous": false,
      "inputs": [
        {
          "indexed": false,
          "internalType": "string",
          "name": "name",
          "type": "string"
        },
        {
          "indexed": false,
          "internalType": "string",
          "name": "aadhar",
          "type": "string"
        },
        {
          "indexed": false,
          "internalType": "string",
          "name": "pan",
          "type": "string"
        },
        {
          "indexed": false,
          "internalType": "address",
          "name": "walletAddress",
          "type": "address"
        }
      ],
      "name": "UserRegistered",
      "type": "event"
    },
    {
      "inputs": [
        {
          "internalType": "address",
          "name": "",
          "type": "address"
        }
      ],
      "name": "users",
      "outputs": [
        {
          "internalType": "string",
          "name": "name",
          "type": "string"
        },
        {
          "internalType": "string",
          "name": "aadhar",
          "type": "string"
        },
        {
          "internalType": "string",
          "name": "pan",
          "type": "string"
        },
        {
          "internalType": "address",
          "name": "walletAddress",
          "type": "address"
        }
      ],
      "stateMutability": "view",
      "type": "function",
      "constant": true
    },
    {
      "inputs": [
        {
          "internalType": "string",
          "name": "_name",
          "type": "string"
        },
        {
          "internalType": "string",
          "name": "_aadhar",
          "type": "string"
        },
        {
          "internalType": "string",
          "name": "_pan",
          "type": "string"
        },
        {
          "internalType": "address",
          "name": "_walletAddress",
          "type": "address"
        }
      ],
      "name": "register",
      "outputs": [],
      "stateMutability": "nonpayable",
      "type": "function"
    },
    {
      "inputs": [
        {
          "internalType": "address",
          "name": "_walletAddress",
          "type": "address"
        }
      ],
      "name": "getUser",
      "outputs": [
        {
          "components": [
            {
              "internalType": "string",
              "name": "name",
              "type": "string"
            },
            {
              "internalType": "string",
              "name": "aadhar",
              "type": "string"
            },
            {
              "internalType": "string",
              "name": "pan",
              "type": "string"
            },
            {
              "internalType": "address",
              "name": "walletAddress",
              "type": "address"
            }
          ],
          "internalType": "struct UserRegistration.User",
          "name": "",
          "type": "tuple"
        }
      ],
      "stateMutability": "view",
      "type": "function",
      "constant": true
    }
  ],
  "bytecode": "0x608060405234801561001057600080fd5b5061112e806100206000396000f3fe608060405234801561001057600080fd5b50600436106100415760003560e01c80636f77926b14610046578063a87430ba14610076578063afd7fe59146100a9575b600080fd5b610060600480360381019061005b9190610882565b6100c5565b60405161006d91906109bf565b60405180910390f35b610090600480360381019061008b9190610882565b610329565b6040516100a09493929190610a3a565b60405180910390f35b6100c360048036038101906100be9190610bc9565b610511565b005b6100cd6107d2565b6000808373ffffffffffffffffffffffffffffffffffffffff1673ffffffffffffffffffffffffffffffffffffffff16815260200190815260200160002060405180608001604052908160008201805461012690610cb3565b80601f016020809104026020016040519081016040528092919081815260200182805461015290610cb3565b801561019f5780601f106101745761010080835404028352916020019161019f565b820191906000526020600020905b81548152906001019060200180831161018257829003601f168201915b505050505081526020016001820180546101b890610cb3565b80601f01602080910402602001604051908101604052809291908181526020018280546101e490610cb3565b80156102315780601f1061020657610100808354040283529160200191610231565b820191906000526020600020905b81548152906001019060200180831161021457829003601f168201915b5050505050815260200160028201805461024a90610cb3565b80601f016020809104026020016040519081016040528092919081815260200182805461027690610cb3565b80156102c35780601f10610298576101008083540402835291602001916102c3565b820191906000526020600020905b8154815290600101906020018083116102a657829003601f168201915b505050505081526020016003820160009054906101000a900473ffffffffffffffffffffffffffffffffffffffff1673ffffffffffffffffffffffffffffffffffffffff1673ffffffffffffffffffffffffffffffffffffffff16815250509050919050565b600060205280600052604060002060009150905080600001805461034c90610cb3565b80601f016020809104026020016040519081016040528092919081815260200182805461037890610cb3565b80156103c55780601f1061039a576101008083540402835291602001916103c5565b820191906000526020600020905b8154815290600101906020018083116103a857829003601f168201915b5050505050908060010180546103da90610cb3565b80601f016020809104026020016040519081016040528092919081815260200182805461040690610cb3565b80156104535780601f1061042857610100808354040283529160200191610453565b820191906000526020600020905b81548152906001019060200180831161043657829003601f168201915b50505050509080600201805461046890610cb3565b80601f016020809104026020016040519081016040528092919081815260200182805461049490610cb3565b80156104e15780601f106104b6576101008083540402835291602001916104e1565b820191906000526020600020905b8154815290600101906020018083116104c457829003601f168201915b5050505050908060030160009054906101000a900473ffffffffffffffffffffffffffffffffffffffff16905084565b7f675fee8478c21e1131cdc25c837b07047b6b9e384a0068948dd4f7880b99aba18484848433604051610548959493929190610ce4565b60405180910390a18073ffffffffffffffffffffffffffffffffffffffff163373ffffffffffffffffffffffffffffffffffffffff16146105be576040517f08c379a00000000000000000000000000000000000000000000000000000000081526004016105b590610de4565b60405180910390fd5b600073ffffffffffffffffffffffffffffffffffffffff166000808373ffffffffffffffffffffffffffffffffffffffff1673ffffffffffffffffffffffffffffffffffffffff16815260200190815260200160002060030160009054906101000a900473ffffffffffffffffffffffffffffffffffffffff1673ffffffffffffffffffffffffffffffffffffffff161461068e576040517f08c379a000000000000000000000000000000000000000000000000000000000815260040161068590610e50565b60405180910390fd5b60405180608001604052808581526020018481526020018381526020018273ffffffffffffffffffffffffffffffffffffffff168152506000808373ffffffffffffffffffffffffffffffffffffffff1673ffffffffffffffffffffffffffffffffffffffff16815260200190815260200160002060008201518160000190816107189190611026565b50602082015181600101908161072e9190611026565b5060408201518160020190816107449190611026565b5060608201518160030160006101000a81548173ffffffffffffffffffffffffffffffffffffffff021916908373ffffffffffffffffffffffffffffffffffffffff1602179055509050507f798c5021a8336c39d82afe7e1e8621b0bf1ef4c2cb57fe911803b77aa769152b848484846040516107c49493929190610a3a565b60405180910390a150505050565b6040518060800160405280606081526020016060815260200160608152602001600073ffffffffffffffffffffffffffffffffffffffff1681525090565b6000604051905090565b600080fd5b600080fd5b600073ffffffffffffffffffffffffffffffffffffffff82169050919050565b600061084f82610824565b9050919050565b61085f81610844565b811461086a57600080fd5b50565b60008135905061087c81610856565b92915050565b6000602082840312156108985761089761081a565b5b60006108a68482850161086d565b91505092915050565b600081519050919050565b600082825260208201905092915050565b60005b838110156108e95780820151818401526020810190506108ce565b60008484015250505050565b6000601f19601f8301169050919050565b6000610911826108af565b61091b81856108ba565b935061092b8185602086016108cb565b610934816108f5565b840191505092915050565b61094881610844565b82525050565b6000608083016000830151848203600086015261096b8282610906565b915050602083015184820360208601526109858282610906565b9150506040830151848203604086015261099f8282610906565b91505060608301516109b4606086018261093f565b508091505092915050565b600060208201905081810360008301526109d9818461094e565b905092915050565b600082825260208201905092915050565b60006109fd826108af565b610a0781856109e1565b9350610a178185602086016108cb565b610a20816108f5565b840191505092915050565b610a3481610844565b82525050565b60006080820190508181036000830152610a5481876109f2565b90508181036020830152610a6881866109f2565b90508181036040830152610a7c81856109f2565b9050610a8b6060830184610a2b565b95945050505050565b600080fd5b600080fd5b7f4e487b7100000000000000000000000000000000000000000000000000000000600052604160045260246000fd5b610ad6826108f5565b810181811067ffffffffffffffff82111715610af557610af4610a9e565b5b80604052505050565b6000610b08610810565b9050610b148282610acd565b919050565b600067ffffffffffffffff821115610b3457610b33610a9e565b5b610b3d826108f5565b9050602081019050919050565b82818337600083830152505050565b6000610b6c610b6784610b19565b610afe565b905082815260208101848484011115610b8857610b87610a99565b5b610b93848285610b4a565b509392505050565b600082601f830112610bb057610baf610a94565b5b8135610bc0848260208601610b59565b91505092915050565b60008060008060808587031215610be357610be261081a565b5b600085013567ffffffffffffffff811115610c0157610c0061081f565b5b610c0d87828801610b9b565b945050602085013567ffffffffffffffff811115610c2e57610c2d61081f565b5b610c3a87828801610b9b565b935050604085013567ffffffffffffffff811115610c5b57610c5a61081f565b5b610c6787828801610b9b565b9250506060610c788782880161086d565b91505092959194509250565b7f4e487b7100000000000000000000000000000000000000000000000000000000600052602260045260246000fd5b60006002820490506001821680610ccb57607f821691505b602082108103610cde57610cdd610c84565b5b50919050565b600060a0820190508181036000830152610cfe81886109f2565b90508181036020830152610d1281876109f2565b90508181036040830152610d2681866109f2565b9050610d356060830185610a2b565b610d426080830184610a2b565b9695505050505050565b7f5472616e73616374696f6e206d757374206265207369676e656420627920746860008201527f652077616c6c65742061646472657373206265696e672072656769737465726560208201527f6400000000000000000000000000000000000000000000000000000000000000604082015250565b6000610dce6041836109e1565b9150610dd982610d4c565b606082019050919050565b60006020820190508181036000830152610dfd81610dc1565b9050919050565b7f5573657220616c72656164792072656769737465726564000000000000000000600082015250565b6000610e3a6017836109e1565b9150610e4582610e04565b602082019050919050565b60006020820190508181036000830152610e6981610e2d565b9050919050565b60008190508160005260206000209050919050565b60006020601f8301049050919050565b600082821b905092915050565b600060088302610ed27fffffffffffffffffffffffffffffffffffffffffffffffffffffffffffffffff82610e95565b610edc8683610e95565b95508019841693508086168417925050509392505050565b6000819050919050565b6000819050919050565b6000610f23610f1e610f1984610ef4565b610efe565b610ef4565b9050919050565b6000819050919050565b610f3d83610f08565b610f51610f4982610f2a565b848454610ea2565b825550505050565b600090565b610f66610f59565b610f71818484610f34565b505050565b5b81811015610f9557610f8a600082610f5e565b600181019050610f77565b5050565b601f821115610fda57610fab81610e70565b610fb484610e85565b81016020851015610fc3578190505b610fd7610fcf85610e85565b830182610f76565b50505b505050565b600082821c905092915050565b6000610ffd60001984600802610fdf565b1980831691505092915050565b60006110168383610fec565b9150826002028217905092915050565b61102f826108af565b67ffffffffffffffff81111561104857611047610a9e565b5b6110528254610cb3565b61105d828285610f99565b600060209050601f831160018114611090576000841561107e578287015190505b611088858261100a565b8655506110f0565b601f19841661109e86610e70565b60005b828110156110c6578489015182556001820191506020850194506020810190506110a1565b868310156110e357848901516110df601f891682610fec565b8355505b6001600288020188555050505b50505050505056fea2646970667358221220d59d9c4ed2f3cfe1fa1ff94aabb0d1528a9c47d03763b18c53a90d18c0bc610664736f6c63430008150033",
  "immutableReferences": {},
  "source": "// SPDX-License-Identifier: MIT\r\npragma solidity ^0.8.0;\r\n\r\ncontract UserRegistration {\r\n    struct User {\r\n        string name;\r\n        string aadhar;\r\n        string pan;\r\n        address walletAddress;\r\n    }\r\n\r\n    mapping(address => User) public users;\r\n    event UserRegistered(string name, string aadhar, string pan, address walletAddress);\r\n    event RegistrationAttempt(string name, string aadhar, string pan, address walletAddress, address sender);\r\n\r\n    function register(string memory _name, string memory _aadhar, string memory _pan, address _walletAddress) public {\r\n        emit RegistrationAttempt(_name, _aadhar, _pan, _walletAddress, msg.sender);\r\n        require(msg.sender == _walletAddress, \"Transaction must be signed by the wallet address being registered\");\r\n        require(users[_walletAddress].walletAddress == address(0), \"User already registered\");\r\n\r\n        users[_walletAddress] = User(_name, _aadhar, _pan, _walletAddress);\r\n        emit UserRegistered(_name, _aadhar, _pan, _walletAddress);\r\n    }\r\n\r\n    function getUser(address _walletAddress) public view returns (User memory) {\r\n        return users[_walletAddress];\r\n    }\r\n}\r\n",
  "sourcePath": "E:\\Project\\vaastu\\contracts\\UserRegistration.sol",
  "compiler": {
    "name": "solc",
    "version": "0.8.21+commit.d9974bed.Emscripten.clang"
  },
  "schemaVersion": "3.4.16",
  "updatedAt": "2024-05-28T05:01:06.578Z",
  "networkType": "ethereum",
  "devdoc": {
    "kind": "dev",
    "methods": {},
    "version": 1
  },
  "userdoc": {
    "kind": "user",
    "methods": {},
    "version": 1
  }
}